:020000040000FA
:020000002928AD
:040002000034003492
:08000800F0000308F1000B19E0
:100010000A281B2883120313B3019F149F1C0E2868
:100020001E08B300B200BD223308AF2117280030EC
:1000300081000B111B2871088300F00E700E09005F
:10004000AD00AE0024200800AD0B2428AE0B242800
:10005000080083160317831603138801890183128E
:1000600003138801890183160317003089000030CB
:100070009F0083160317FF30880000308900831229
:10008000031385309F0083120313A0308B00831667
:100090000313C2208316031307308100FF3085004D
:1000A000831203139F14542854283A3084009E016D
:1000B0009F01BA01BB01BC01BD01BE01BF01C0016E
:1000C000C101C201C301CA01CB01CC01CD01CE01E6
:1000D000CF01D001D101D201D301DA01DB01DC0172
:1000E000DD01DE01DF01E001E101E201E301EA01FE
:1000F000EB01EC01ED01EE01EF01F001F101F20184
:10010000F301FA01FB01FC01FD01FE01FF01800189
:100110008101820183018A018B018C018D018E0195
:100120008F0190019101920193019A019B019C0121
:100130009D010800AA0000089E02031C9F032A08D4
:1001400080009E0703189F0A840A04089E3A3A30EA
:100150000319840003101F0CA5001E0CA40003103B
:10016000A50CA40C0310A50CA40C0310A50CA40C46
:100170000310A50CA40C0310A50CA40C0318A40ACE
:10018000240808001930202089010130A9008900C5
:10019000023020203830AC00880002302020890155
:1001A0000230202088010930202089010130A90077
:1001B0008900023020203830AC0088000230202036
:1001C0008901023020208801093020208901013076
:1001D000A9008900023020203830AC0088000230AD
:1001E000202089010230202088010230202089014E
:1001F0000130A9008900023020200230AC008800C4
:10020000202089010230202088010230202089012D
:100210000130A9008900023020200130AC008800A4
:100220000230202089010230202088010230202065
:1002300089010130A9008900023020200C30AC0077
:1002400088000230202089010230202088010230FD
:10025000202089010130A9008900023020200630C9
:10026000AC00880002302020890120208801CB21A9
:100270003D22080089010130A900890002302020B8
:100280000130AC0088000230202089012020880144
:1002900089010130A9008900023020200230AC0021
:1002A000880002302020890120208801080089016F
:1002B0000530A9008900023020204830AC008800B9
:1002C0000230202089012020880189010530A90001
:1002D0008900023020206530AC00880002302020E8
:1002E00089012020880189010530A9008900023098
:1002F00020206C30AC0088000230202089012020B2
:10030000880189010530A9008900023020206C3065
:10031000AC0088000230202089012020880189015A
:100320000530A9008900023020206F30AC00880021
:10033000023020208901202088010800B1008901B5
:100340000530A9008900023020203108AC00880067
:100350000230202089012020880100300800B100EF
:1003600089010130A9008900023020208830AC00CA
:100370008800023020208901202088013108B40043
:10038000340EB5003508D922B5009E213408D92293
:10039000B4009E21080089010530A90089000230BF
:1003A00020206330AC00880002302020890120200A
:1003B000880189010530A9008900023020207530AC
:1003C000AC008800023020208901202088018901AA
:1003D0000530A9008900023020207230AC0088006E
:1003E0000230202089012020880189010530A900E0
:1003F0008900023020202D30AC00880002302020FF
:1004000089012020880189010530A9008900023076
:1004100020207630AC008800023020208901202086
:10042000880189010530A90089000230202061304F
:10043000AC00880002302020890120208801890139
:100440000530A9008900023020206C30AC00880003
:100450000230202089012020880189010530A9006F
:100460008900023020203A30AC0088000230202081
:100470008901202088012F14080089010130A9007A
:10048000890002302020A830AC00880002302020F3
:1004900089012020880189010530A90089000230E6
:1004A00020206130AC00880002302020890120200B
:1004B000880189010530A9008900023020207630AA
:1004C000AC008800023020208901202088018901A9
:1004D0000530A9008900023020206730AC00880078
:1004E0000230202089012020880189010530A900DF
:1004F0008900023020202D30AC00880002302020FE
:1005000089012020880189010530A9008900023075
:1005100020207630AC008800023020208901202085
:10052000880189010530A90089000230202061304E
:10053000AC00880002302020890120208801890138
:100540000530A9008900023020206C30AC00880002
:100550000230202089012020880189010530A9006E
:100560008900023020203A30AC0088000230202080
:1005700089012020880130140800B1008901013070
:10058000A900890002302020C830AC008800023069
:1005900020208901202088013108B600360EB700DE
:1005A0003708D922B7009E213608D922B6009E21ED
:1005B00008000F39AA0002308A00E2302A07031827
:1005C0008A0A8200303431343234333434343534AE
:1005D0003634373438343934413442344334443493
:0405E0004534463424
:02400E00C420CC
:02401000FF3E71
:00000001FF
